:400000000080002011000000A9020000A9020000044A08B51268044B1A6000F0ADF900F04BF900BFFA460040BC76004010B5054C237833B9044B13B10448AFF300800123AE
:40004000237010BD4881FF1F000000001C170000084B10B51BB108490848AFF300800848036803B910BD074B002BFBD0BDE81040184700BF000000004C81FF1F1C170000A2
:40008000C880FF1F0000000008B500F077FDFEE7F8B572B66D4E0024354604EB4403AA8856F813000134002101F02CFB0A2C05F10605F2D1664E674B96E803008022186073
:4000C0009980654806F1080101F0F6FA06F1840706F1E00E0025E43657F8043F13F0FF0C23F0FF0414D00CF1FF3C5FFA8CFC05EB0C0006EB400006EB45030330013313F828
:40010000012C13F8021B98421155F8D1013565447745E1D1514C41F251262278504F42F0020222703A784F4D42F002023A702A78A4F5863442F040022A70413C2278A7F5E8
:400140007E4742F01002484B2270513F04F66E5403CB3860796003CBC5F8720DC5F8761D93E8070003C4414922800B7805F58C6543F008030B703E4C3E4861232B70A7F604
:40018000C2673D4A332118250223218005704FF040243B7008210320384B217010701A783748384BD2B287F8A123A4F8221206801C784FF4F07004F001041E4600F0D0FF91
:4001C00001E0032C0DD033784FF4F07003F0010343EA440400F0C4FF013D04F00304F0D1FEE7294B294D2A4F2A484FF4807407221C8000211A704826274A022439702E70FE
:4002000019700470137800F5F820033043F00103812601242149137085F8F86704700B78A0F5F420DBB21E49A0F2967005F5C35503F007071B4C1B090770023A0B700E35EF
:4002400044260FCA2E7007C42380F8BD201700005C17000060520040001A01400350014013500140A04300407C1B0000224300408040004082400040004200400801004916
:40028000204200402542004004400040084000400640004001400040A2430040CF0100496F580040B043004008B501F0D9F903680C2B00D0FEE7FEE780B5134FF7B1134E0E
:4002C000002556F80C0C56F8084C56F8102C03463CB1043A52F8041F43F8041B191AA142F8D156F8040C1A4620B142F8045BD11A8842FAD1013F06F11006E2D101F0B6F9E5
:40030000FFF7C2FEFEE700BF01000000D81B00000E4B0F4A0F491A600B680F4A43F400730E480B600023032B94BF50F823100C490133302B42F8041FF5D10A4B0A49187856
:400340000A4A0B4B08701A60FFF7A2BE0CED00E00004FA0514ED00E0FC7FFF1F00000000A9020000BC760040C080FF1F0080FF1F08ED00E0004700BF134A137803F0C003A3
:40038000802B00D0704770B400231048104E114D1370017833782A780F4C120442EA032322780B4353EA026301D170BC7047017833782A782078120442EA03230B4343EA24
:4003C000006070BCFFF7D6BFFA460040C1FF0300C2FF0300C3FF0300C4FF0300F0B50002C0F57F3090F8C5E390F8C67390F8C92390F8CAC390F8CB1390F8CC3390F8D15336
:40040000C1B0012D69D0DBB21D06C9B290F8C53390F8C663FFB245EA01415FFA8EFED2B25FFA8CFC0A434EEA072E43EA062642EA0C220EF10107013602EB072736020022FC
:40044000B74200F2D13415460AD916F8013B591EC9B2FD29134498BF0125B742DAB2F4D190F8C53390F8C6131D4E43EA0121B7424FEA411101F1200114BFFF084FF4004738
:400480008F4209D901F1904107F1904711F8013B1344B942DAB2F9D1534290F8C023DBB2934202D0062041B0F0BD002DFAD068464FF4807224F0FF0101F009F99DF8D1309B
:4004C000012B0AD00123C4F307216A4603208DF8D13000F0E1FB00F005FD002041B0F0BDC0FF0300013810B40B2863D8DFE800F017202632383E444A50565C060902C1F5DE
:400500007F3101F578710A784C788B78C8781B0443EA0423134343EA006010BC70470902C1F57F3101F57071087810BCC0B270470902C1F57F3101F2C131E4E70902C1F52B
:400540007F3101F2C5314A1C0B78107810BC43EA002070470902C1F57F3101F2C931D2E70902C1F57F3101F57471DDE70902C1F57F3101F2D131D7E70902C1F57F3101F2F2
:40058000D231E0E70902C1F57F3101F2D631DAE70902C1F57F3101F57571D4E70902C1F57F3101F57671AEE70902C1F57F3101F57771B9E701220021C6E700BF2DE98048DD
:4005C000ADF5677D00F0DCFD62B600239B461E4601930DF23F1451AF0DF245190DF5A3780293FF2305AA4FF4967150A800F0E8FD0028F6D1BDF81420062A03D99DF8405145
:40060000012D2CD04FF0040A0025284604210123ADF816008DF841A18DF842518DF843618DF840310023625C0139134489B29BB20029F8D15B429BB25FFA83FE1A0AC11D5C
:40064000172507F800E089B209F80020962308F800500DF1160250A800F09EFDC1E7BDF84231D91D914200F2E680B1F5967F00F2E28050AA1A449279172AC3D1191D89B2B8
:40068000002900F04A82625C0139104489B280B20029F8D1404280B250AAD11891F805E00A7942EA0E22824202D04FF0080AABE79DF841119DF844A1A1F131020A2A00F201
:4006C000AD80DFE802F04788AB5A41AB311F5A1606000020FFF782FE10B9BD4A8023137000F058FD002500F0C9FB04218A4628468DE7BBF1000F40F0BB80042100258A46CD
:40070000284684E7002BF8D1B24A082592E8030008AA82E8030087E8030001939A4628460C214FF0010B72E7BBF1000FE5D0019A03EB020EBEF5967F40F3108100252846DA
:4007400004214FF0030A62E7BBF1000FD5D00023019346E7BBF1000FCFD0002BCDD118460393FFF73BFEB0FA80F0039B40098DF844019A460521584649E734295ED0BBF15F
:40078000000FBAD0022BB8D9AAF1400B019D5FFA8BFB033B9BAA50190DF247111A46039300F08AFF019BBBF13F0F1A46039B1A4495B240F207814FF480734FF49072954288
:4007C00000F0F38000250195284604214FF0010B4FF0030A1BE7BBF1000F8ED0012B8CD1BAF1030F89D87C4B1B681B68C3F30742924500F09E8194BF012200220023FF2162
:4008000004258DF846118DF844318DF845218DF84761284608214FF0000AF8E66F4A1568002D6CD0BBF1000F6ED10025284604214FF0050AEBE64FF0030AE5E6BBF1000FA1
:400840003FF45BAF032B7FF458AFAAF1400B5FFA8BFBBBF13F0F94BF10254FF490752A4600219BA80393019500F04CFF039B90E7032B7FF442AFAAF140033F2BBDF84511CF
:4008800040F2E780FF2979D84FEA0A2E0EEB0100000200F1FF020023013812F801C963448242DBB2F9D1BAF13F0F20D80EF110720A4452011046203210F801EB73448242AB
:4008C000DBB2F9D1BAF1030F11D1FF290FD1002105200393FFF706FE039B00211B1A06205FFA83FAFFF7FEFDC0EB0A00C3B25B428DF8443105214FF0000A012087E6042160
:4009000028464FF0050A82E68DF81810ADF81A3006A80797089609960A9708A9A847BDF824000A9BB0F5937F01D3BB422ED05BB39DF82030021D91B28DF841310122030AAD
:40094000ADF816008DF842018DF840218DF8433100297FF467AE0A468E4670E61A46019B9BA90B441846394600251FFA8EF30193AA4600F0A1FE2846042148E60025284658
:4009800004214FF00A0A42E60028D1D001220E23ADF816608DF842618DF843618DF840218DF84131042100203CE6BDF845219A42019215D30025284604214FF0010B4FF016
:4009C0000A0A24E600F030FA80231022F7E600BFFA460040981B0000CC80FF1F6481FF1FBAF13F0F20D8554B02EB0A221B6892B21968C1F30F2311F0FF0F1CBF01339BB26B
:400A00009A42C0F08C80029B73B919464FF4907208A800F077FE4FF4907308AAFF21032000F0A0F9012302932B46019950469BAA00F098F9002398420CBF9A464FF00A0ABD
:400A400001931D464FF0010B00F04CFA01980421DDE5039100F0E8F903997F294FEA01138CD837483749384A18441944DFF8DCC000781A440978DFF8D8E012789C449E4445
:400A800008449CF80010DFF8CCC010449EF80020DFF8C4E09C449E4408449CF80010DFF8BCC010449EF80020DFF8B4E09C449E4408449CF80010DFF8ACC010449EF80020E5
:400AC000DFF8A4E09C449E4408449CF80010DFF89CC010449EF80020DFF894E09C449E4408449CF80010DFF88CC010449EF80020DFF884E09C4408449E449CF8001003F1A1
:400B00008043104403F500439EF8002001441B780A44134403F0FF03E9E60846BCE5002301931D46184604214FF0010B4FF00A0A6DE5C3F30723002261E600BFCC80FF1F7E
:400B40000F8000400E8000400D8000400C8000400B8000400A80004009800040088000400780004006800040058000400480004003800040028000400180004038B500F0E0
:400B800039F870BB0020FFF729FC184C0028236818BF06251A6808BF00256AB1002312F8011D0B44DBB2002AF9D162681278D31A03F0FF039A4202D0002000F05DF90C4A41
:400BC000137803F0C003402B00D025B1084B00221A70FFF7F3FC80231370BDE8384000F04DB9002000F048F9CCE700BFCC80FF1FFA46004038B500F0AFF900F05FFA10B14A
:400C00000424204638BD00F095FA072804462BD000F076FA002CF4D100F09EF900F04EFA0028EDD1012000F02DFA072805D04FF0FF3400F065FA204638BD154C02E0237812
:400C40009B07F4D40221134800F09CF90228F6D10F4C2378990705D4012000F03BF923789A07F9D50024E4E7094D2B789B0705D4012000F02FF92B789807F9D5044B1A78CB
:400C80009507D6D51B789B08D3D100F039FAC3E7224700407C81FF1FF0B53F2883B00AD8441F3A2C8CBF00240124B1F5807F17D9012003B0F0BD412894BF0024012481293F
:400CC00028BF01241027002AF2D0002CF0D116460D46044600F0F2F928B1042003B0F0BD4FF48077EFE73B4632462946204600F069F9072804D0019000F002FA0198EDE78A
:400D0000164E33789B0705D4012000F0E3F833789807F9D5114E33789F071BD533789B0818D10F4A294653782046127800F086F90728E0D102E0012000F0CCF8337899077A
:400D4000F9D5064B1A78920704D51B789B0801D11846D0E74FF0FF30CDE700BF224700407C81FF1FF0B5412883B015D8441F3A2C8CBF002401243F280FD8B1F5807F11D827
:400D800082B17CB91E4617460D46044600F096F958B1042003B0F0BD0124812928BF0124102BEDD0012003B0F0BD33463A462946204600F007F9072804D0019000F0A0F932
:400DC0000198F0E7164E33789B0705D4012000F081F833789807F9D5114E33789F071BD533789B0818D10F4A294653782046127800F024F90728E0D102E0012000F06AF8BB
:400E000033789907F9D5064B1A78920704D51B789B0801D11846D0E74FF0FF30CDE700BF224700407C81FF1F38B500F0A1F90F4A0F4913780F4C43F0080313700B78C82543
:400E400043F008030B702570137B43F0100313730B7B02F5587243F010030B7313789B06FCD5BDE8384000F087B900BFA0430040B04300400147004001BE7047024A13788B
:400E800043F0010313707047F6460040B0F5004F70B506461AD904460D4DA4F50044686800F05EF9B4F5004FF7D8A6F50043013B23F4FF4323F07F03A6F50046F61AA86885
:400EC00000FB06F0BDE8704000F04AB9004DF6E7D480FF1F024B1B7800FB03F000F040B9D480FF1F08B500F043F900BF00BF00BF00BF00BF00BF00BF00BF00BF00BF00BFD6
:400F000000BF00BF00BF00BF00BF064A13889BB243F0040313801388BFF36F8FBDE8084000F02AB900480040054B00F01F001A6800F1100352F8230042F82310704700BF29
:400F400008ED00E000F01F0000F16040490100F56440C9B20170704708B500F009F90749074A0B7843F008030B70137843F008031370BDE8084000F0FFB800BFA043004028
:400F8000B04300402DE9F0410F4699B14E1EF6B20644451E094CDFF8288002E00120FFF799FF2378DB07F9D598F8003005F8013FB542F6D13846BDE8F08100BF22470040F0
:400FC00020470040F0B41B4C2578AD071DD51A4DB6262E70D52702262F702E702478A40710D428705BB15E1EB6B21644013A12F8014FB2422C70FAD1B3F5807F08D0F0BC92
:40100000072070470920F0BC70470420F0BC70473F28F4D800F5103001EB0021490106480A46203112F8013BDBB291420370F9D1E5E700BF2247004020470040F0B40F4D53
:401040002C78A60716D50E4CB6262670D8270526277026702D78AD0709D40D0AC9B2207025702170227023700720F0BC70470920F0BC70470420F0BC704700BF2247004069
:40108000204700400B4A1378990711D530B40A4BB625E1240E211D701C7019701278920703D4187030BC07207047092030BC704704207047224700402047004038B500F019
:4010C00057F80D4A137823B1042400F055F8204638BD0125094915700C682C40F5D00C6824F001040C6000BF00BF00BF1C46556000F042F8204638BD6881FF1F0400084064
:4011000010B500F035F8094B002259681A70012908D1074C216841F00101216000BF00BF00BF5A60BDE8104000F026B86881FF1F04000840074B1B789B0708D5064BB620E1
:40114000E0210D221870197007201A7070470420704700BF2247004020470040000000000230800803D000BF01380046FCD17047EFF3108072B6704780F31088704700BFBB
:4011800008B500F071F800F04BF9BDE8084000F0A7B900BF00F0C6B8F8B50E460446174600F03EF94EB1751EADB22544013C14F8010F00F057F9AC42F9D13E800020F8BD6E
:4011C0002DE9F84303EB83035D0006468846174618BF002407D117E001340120A4B2FFF755FEAC4210DA00F0F3F80028F4D000F0EFF804461920FFF749FE00F0E9F88442CA
:40120000F5D34FF0000901E04FF0050900243C8000F0DEF8F8B100F0DBF83A8880B283189BB243453B801BD2C0B1204485B200F0A1F8631C30559CB2AC42F8D1731913F81D
:40124000013C172B02D00520FFF720FE2C4600F0BFF80028DFD14846BDE8F8832546EDE73A804846BDE8F883F8B5224D2C780CBB21492046FFF758FE20460721FFF762FE17
:401280001E4B1F492022692008701A701D4901206C70FFF749FE07210120FFF753FE1A4E1A481B4A06274724022101233770047011702B70FFF75CFF0546164C1649237823
:4012C000164A43F0200323700B78012043F010030B701060A378124843F010030221A3700160116000F09CF92846BDE8F840FFF743BF00BF7081FF1F211500008964004014
:4013000089650040B915000028640040386400408B650040996500409964004000E100E080E200E038B5FFF723FF05460D4A0E4C137803F0DF03137000F082F923780B4A1C
:40134000012003F0EF030A49237010600B78022403F0EF030B7028461460BDE83840FFF70BBF00BF996500409964004080E100E09B65004010B4114B114A0121196091786F
:40138000D3781079C9B210B9DBB2994212D04B1CDBB2402B0B4828BF0023405C93701379074CC0B20BB100232371074B01221A6010BC7047054B1878C0B2F6E780E100E0CA
:4013C0007081FF1F8081FF1F00E100E04A650040104A0121104B11609978DA7891420FD09978DA789142DA78987824BF02F14003181A0A4B38BF101A0122C0B21A60704793
:401400001B790122002B054B14BF402000201A60704700BF80E100E07081FF1F00E100E010B5FFF7A5FE0B4B0B4C1A7842F001021A701A7802F0FE021A70FFF79DFE074BD9
:4014400000220121064821609A70DA701A715A71016010BD9A65004080E100E07081FF1F00E100E070B4194DEC79AB792646DBB2591EE21A091BA2F13F02B1FA81F1B2FAF1
:4014800082F249095209A34288BF0A46002AECD1A34212D03F2C0E4A88BF00260D4B90551B789ABF0134E4B201249B07EC7102D5094B02221A6070BC7047064B1B785A07A8
:4014C000E8D4064B187070BC704700BF7081FF1FC081FF1F6B65004000E200E04865004010B5FFF745FE0A4B0A4C1A7842F001021A701A7802F0FE021A70FFF73DFE064AFF
:401500000223002105482360D1719171036010BD9865004080E100E07081FF1F00E100E02DE9F0431C481D491D4F1E4A1E4E1F4CDFF880C01E4D4FF0010E0378DBB213F03A
:401540001E0905D091F8008049EA080881F800809B0601D4BDE8F08397F8008013785FFA88F8DBB206F8038023784FF000080BB18CF800E013780133DBB2137013783F2B55
:4015800088BF82F8008092F800802B789845D4D184F800E0D1E700BF696400407181FF1F4A6500407381FF1F8081FF1F7481FF1F7281FF1F7581FF1F144A154813780178B4
:4015C000994221D0F0B513490B7803F0040303F0FF06C3B91746104D104C02E00B785B0711D413783F2B88BF3E701378DBB2EB5CDBB22370137890F800E00133DBB21370CB
:4016000013789E45EAD1F0BD704700BF7681FF1F7781FF1F6B650040C081FF1F486500400549064A0B7843F001030B70137843F001031370704700BFA2430040B2430040EF
:401640000549064A0B7803F0FE030B70137803F0FE031370704700BFA2430040B2430040014B1868704700BF4481FF1F0E4B70B51E460E4C0025E41AA410A54204D056F8C7
:40168000253098470135F8E700F08CFA084B094C1E46E41AA4100025A54204D056F8253098470135F8E770BDB01B0000B01B0000B01B0000B81B000010B5431E0A4491428E
:4016C00004D011F8014B03F8014FF8E710BD884210B501EB020301D8421E0BE09842FBD28118D21AD34204D013F8014D01F8014DF8E710BD994204D011F8014B02F8014F77
:40170000F8E710BD03460244934202D003F8011BFAE77047001D0000ED00000000000000005100401000205100401000405100403000F051004010000000014000100014B5
:4017400001400006801A0140800100400140000A004C014000020050014020001090000040000000CF083042C3003C0800100000082000000020F3000C30F3003D0FC0F055
:4017800008000084023F20C004F800010C3900C6430010C740318C003F0000FF00002800000000402105040003EC000003FFFFFF62A0F0410C00000000000000040404044F
:4017C0000000000100000000000040020010301000101012000000000000000000000000000000000152004001640040026500400107014054080140370901400414014085
:4018000003150140011701404D180140411901400D1A0140411B0140034001400241014002420140044301400147014002480140084C01400E4D014004500140015101402E
:401840000914893A89698B0FE60203010461060E071809480A400B860E0811801365142C15E61643171119601B8B1E43206121A02206260C28102D802F023020320F330774
:40188000341035F8364038023A083B083E504003474049FF4A074BFF4C404D204EF04F055008580459045A045F01604061A8624063208320850387048A028B088D038E022A
:4018C0008F0C9001950A9704980199039B04A310A710A801AF05B001B10FB320B510B602BB02BE40BF10D41AD604D804D904DB04DF0100A005800605071008800A450E2010
:401900000F0211101502161819401B021D241E211F0120402105220223042404271029012B212D802E023104331035043602371038523A143C143E083F0245084F025601C3
:4019400059025A206140634485208740C0E3C2AAC472CA9BCCE6CEEFD040D605D80DE008B980BF40D904DF012680A680B280EA0801020B011001140419011E022006280662
:401980002D01320633033401380839083E1440454102460E47BC483449FF4AFF4BFF4EF04F44500C580459045A045F0166C06A406B0284038508860C89088D088E0E900232
:4019C00091089208953D960F9702980299239A049B1C9D1E9F01A127A318A501A716A80CA926AA03AB19AC03AE0CAF1FB320B401B508B60EB71FB820BA80BB80BF04D602C6
:401A0000D712D804D904DB04DF01000403020520060408280A800E300F821209150216C0171019801BA01D081E082254241028282A012B8A2E8031143249371038A83E10F9
:401A40003F02464047104E02560657405A0869106A46705C79017A027B41910A941295109664978098809B109D039E06A210A303A450A508A720AF40B701C005C2BEC4533B
:401A8000CA1FCC2FCEAED0A0D210D602840188018C019601A201AE02B203BA08D401D604D804DB04DF0100440380059408120A120E101048114012101580164018041916A1
:401AC0001E101F0820802142281229042A402B8A30483110324138E239083A1040264102481049815C805D215E0867806A4082408C218D4090A09109928294069780988038
:401B000099A09C209D17A008A204A382A450A708C0EDC22FC49FCA0FCC0FCE0FD00FD208D6F0D880E004E88030103580CC309C109D809C109D8084109C109D80E640862085
:401B4000AD80EA105840620199089A20B508D401D802E80212807220750882018E8099089A209E01B040C408DC01DE04E202E80100010C0110011C01000F00004090900073
:401B80009000000010140400140000000000000101000000000000006910162E003C010143000000F8B500BFF8BC08BC9E4670475100000011030000F8B500BFF8BC08BC51
:401BC0009E4670472D000000D81B0000C880FF1F80000000B8000000000000001417000018170000180000000000E02EC05D000000366E010000000000000000000000004A
:401C00000000000000000000000000000000000000000000A01B000000000000000000000000000000000000000000000000000000000000000000000000000000000000E9
:401C40000000000000000000000000000000000000000000E480FF1F00000000000000000000000000000000000000000000000000000000000000000000000000000000E2
:401C80000000000000000000000000000000000000000000000000000000000000000000000000000000000000000000000000000000000000000000000000000000000024
:401CC00000000000000000000000000000000000000000000000000000000000000000000000000000000000000000000000000000000000000000000000000000000000E4
:401D000000800020111D0000058601000586010080B500AF16F0AAFC10B5054C237833B9044B13B10448AFF300800123237010BD8882FF1F0000000050340200084B10B5C5
:401D40001BB108490848AFF300800848036803B910BD074B002BFBD0BDE81040184700BF000000008C82FF1F50340200C880FF1F0000000080B58CB000AFE44B1B7887F8BC
:401D80002F30E24BB3F98030DBB2013BDBB21946DE480BF0C5FB03461946DC4BB3F98030013BDA4AD35C994204D0D84B002283F8842061E297F82F30A82B00F25C8201A261
:401DC00052F823F0ED200000CF20000077220000F3200000F92000001D210000B72000007722000077220000512100003721000077220000D52000007321000077220000F9
:401E00007722000077220000772200007722000077220000772200007722000077220000772200007722000077220000772200007722000077220000772200007722000012
:401E400077220000772200007722000077220000772200007722000077220000772200007722000077220000772200007722000077220000772200007722000077220000D2
:401E80007722000077220000772200007722000077220000772200007722000077220000772200007722000077220000772200007722000077220000772200007722000092
:401EC0007722000077220000772200007722000077220000772200007722000077220000772200007722000077220000772200007722000077220000772200007722000052
:401F00007722000077220000772200007722000077220000772200007722000077220000772200007722000077220000772200007722000077220000772200007722000011
:401F400077220000772200007722000077220000772200007722000077220000772200007722000077220000772200007722000077220000772200007722000077220000D1
:401F80007722000077220000772200007722000077220000772200007722000077220000772200007722000077220000772200007722000077220000772200007722000091
:401FC0007722000069200000A52000006F200000B120000075200000812000007B200000772200009F2000008D20000077220000932000008720000077220000772200009F
:4020000077220000AB2000007722000099200000772200007722000077220000772200007722000077220000772200007722000077220000772200007722000077220000BE
:40204000772200007722000011220000172200002F220000352200003B22000041220000472200005F2200000CF016F904E10BF0FBFF01E10BF048FEFEE00CF099F9FBE021
:402080000CF032FAF8E00CF0A5FAF5E00BF006FFF2E00BF05FFFEFE00BF0B8FFECE00CF023FCE9E00CF056F9E6E00CF0C5FAE3E00CF0ECFAE0E0164B1B88BB61BB695BBACA
:4020C0007B617B699BB2184600F0E2F8D4E007F025F8D1E00E4B1B88BB62BB6A5BBA3B613B699BB2184603F06FFAC5E00CF0BEFAC2E00CF01BFBBFE032200BF049FA034613
:40210000002B07D001200BF02BFAB5E00C96FF1F0D96FF1F00200BF023FAADE00BF0C4FA0346002B03D001200BF01AFAA4E000200BF016FAA0E00BF0E5FA0346002B03D001
:4021400001200BF00DFA97E000200BF009FA93E001200BF005FA4FF47A7019F0ABF9002016F050FC4FF47A7019F0A4F917F030FC82E0434B5B781B021AB2414B9B781BB2AF
:4021800013431AB23F4B5A803D4BDB781B021AB23B4B1B791BB213431AB23A4B9A80394BB3F90230B3F1FF3F0FD1364BB3F90430B3F1FF3F09D1334B00221A70314B002224
:4021C0005A80304B00229A8056E02E4BB3F90230002B03DA2B4B00225A8007E0294BB3F90230C82B02DD274BC8225A80254BB3F90430002B02DA234B00229A80224B002276
:402200001A60204B01221A7001200BF0A9F933E00CF09AFB30E01D4B1B887B627B6A5BBAFB60FB689BB2184606F07EF824E00CF057FE21E00CF09AFE1EE00CF00DFF1BE0F8
:402240000CF038FF18E0114B1B883B623B6A5BBABB60BB689BB218460CF08CFF0CE00B4B1B88FB61FB695BBA7B607B689BB218460DF02AF800E000BF3037BD4680BD00BF26
:402280000C96FF1F9496FF1FACA4FF1F0D96FF1F80B5ADF5BB4D92B000AF024607F14803423B1A8007F59C4303F1280300221A60043340F69C72002118461EF0C4FB07F120
:4022C0004803403B00221A60043344F61C62002118461EF0B8FB07F14803423B1B88062B7DD801A252F823F00523000027230000492300007123000093230000B123000068
:40230000B723000007F59C4303F12803184606F04DFF17F09FF807F59C4303F12803184617F076F85CE007F59C4303F12803184608F0F8FF17F08EF807F59C4303F12803B4
:40234000184617F065F84BE007F59C4303F128034FF47A621946254814F006FA17F07AF807F59C4303F12803184617F051F837E007F14803403B44F62061184614F024FA56
:4023800017F068F807F14803403B184617F040F826E007F14803403B184614F021FB17F059F807F14803403B184617F031F817E014F040FA14E007F59C4303F128034FF40F
:4023C0007A6219460A4814F0CFF917F043F807F59C4303F12803184617F01AF800E000BF00BF07F5BB474837BD4680BD2C83FF1F3C81FF1FF0B5ADF5B45D81B000AF07F1DE
:402400002004143C206007F120001838016007F120011C390A603A46136007F16003083B00221A60043341F20E62002118461EF00AFB41F2126307F5B35202F11802138025
:40244000002307F5B35202F11D021370002307F5B35202F11C021370002307F5B35202F11B02137007F140031C3B00221A6004332E22002118461EF0E6FA002307F5B352EE
:4024800002F117021370012307F5B35202F11602137007F12003143B1B681B6807F5B35202F11002136007F5B35303F110031B6807F5B35202F10C02136007F16003083B52
:4024C0000C221A7007F16003083B4F225A70002307F5B35202F11D02137002F0BFBF07F5B35303F11D031B789A0007F12003143B1B6813441B6807F5B35202F1100213609F
:4025000007F5B35303F11D031B78322202FB03F39A1C07F5B35303F11D03197807F12003183B1B680B44197807F16003083B995407F5B35303F11D031B78322202FB03F302
:40254000DA1C07F5B35303F11D03197807F120031C3B1B680B44197807F16003083B995407F5B35303F11D031A7807F12003183B1B6813441B78092B2BD801A252F823F0A4
:40258000A9250000A9250000A9250000B7250000B7250000C5250000C5250000C5250000D3250000A9250000012307F5B35202F11B0213700DE0022307F5B35202F11B029A
:4025C000137006E0042307F5B35202F11B02137000BF07F5B35303F11D031B7807F5B552126813441B78002B40F0DA8307F5B35303F11D031A7807F12003183B1B68134440
:402600001B78092B02F2F78001A252F823F000BF39260000F526000039260000B1270000E3280000132A0000432B0000732C0000F747000039260000002307F5B35202F1EF
:402640001F02137042E007F5B35303F11F031B7807F5B35202F11B02127802FB03F31A4607F5B35303F110031B68134407F5B35202F10C02136007F5B35303F11D031B78FA
:40268000322202FB03F31A1D07F5B35303F11F031B7807F5B35101F11B01097801FB03F31A4407F5B35303F10C031B68197807F16003083B995407F5B35303F11F031B78C3
:4026C000013307F5B35202F11F02137007F5B35303F11D031A7807F120031C3B1B6813441B7807F5B35202F11F0212789A42AAD302F081B8002307F5B35202F11F021370A9
:4027000042E007F5B35303F11F031B7807F5B35202F11B02127802FB03F31A4607F5B35303F110031B68134407F5B35202F10C02136007F5B35303F11D031B78322202FB8C
:4027400003F31A1D07F5B35303F11F031B7807F5B35101F11B01097801FB03F31A4407F5B35303F10C031B68197807F16003083B995407F5B35303F11F031B78013307F523
:40278000B35202F11F02137007F5B35303F11D031A7807F120031C3B1B6813441B7807F5B35202F11F0212789A42AAD302F023B8002307F5B35202F11F0213707CE007F51E
:4027C000B35303F11F031B7807F5B35202F11B02127802FB03F31A4607F5B35303F110031B68134407F5B35202F10C02136007F5B35303F10C031B68B3F9002007F1200375
:40280000023B1A80002307F5B35202F11E0213703BE007F5B35303F11D031B78322202FB03F31A1D07F5B35303F11F031B7807F5B35101F11B01097801FB03F31A4407F53F
:40284000B35303F11B031B781A4407F5B35303F11E031B78D31A5A1E07F5B35303F11E03197807F12003023B0B44197807F16003083B995407F5B35303F11E031B780133F7
:4028800007F5B35202F11E02137007F5B35303F11E031A7807F5B35303F11B031B789A42B7D307F5B35303F11F031B78013307F5B35202F11F02137007F5B35303F11D033E
:4028C0001A7807F120031C3B1B6813441B7807F5B35202F11F0212789A42FFF470AF01F08ABF002307F5B35202F11F0213707BE007F5B35303F11F031B7807F5B35202F1EB
:402900001B02127802FB03F31A4607F5B35303F110031B68134407F5B35202F10C02136007F5B35303F10C031B681A8807F12003043B1A80002307F5B35202F11E0213706D
:402940003BE007F5B35303F11D031B78322202FB03F31A1D07F5B35303F11F031B7807F5B35101F11B01097801FB03F31A4407F5B35303F11B031B781A4407F5B35303F190
:402980001E031B78D31A5A1E07F5B35303F11E03197807F12003043B0B44197807F16003083B995407F5B35303F11E031B78013307F5B35202F11E02137007F5B35303F126
:4029C0001E031A7807F5B35303F11B031B789A42B7D307F5B35303F11F031B78013307F5B35202F11F02137007F5B35303F11D031A7807F120031C3B1B6813441B7807F51D
:402A0000B35202F11F0212789A42FFF471AF01F0F2BE002307F5B35202F11F0213707BE007F5B35303F11F031B7807F5B35202F11B02127802FB03F31A4607F5B35303F1BE
:402A400010031B68134407F5B35202F10C02136007F5B35303F10C031B681A6807F12003083B1A60002307F5B35202F11E0213703BE007F5B35303F11D031B78322202FB43
:402A800003F31A1D07F5B35303F11F031B7807F5B35101F11B01097801FB03F31A4407F5B35303F11B031B781A4407F5B35303F11E031B78D31A5A1E07F5B35303F11E0334
:402AC000197807F12003083B0B44197807F16003083B995407F5B35303F11E031B78013307F5B35202F11E02137007F5B35303F11E031A7807F5B35303F11B031B789A42DB
:402B0000B7D307F5B35303F11F031B78013307F5B35202F11F02137007F5B35303F11D031A7807F120031C3B1B6813441B7807F5B35202F11F0212789A42FFF471AF01F08E
:402B40005ABE002307F5B35202F11F0213707BE007F5B35303F11F031B7807F5B35202F11B02127802FB03F31A4607F5B35303F110031B68134407F5B35202F10C02136036
:402B800007F5B35303F10C031B681A6807F120030C3B1A60002307F5B35202F11E0213703BE007F5B35303F11D031B78322202FB03F31A1D07F5B35303F11F031B7807F58C
:402BC000B35101F11B01097801FB03F31A4407F5B35303F11B031B781A4407F5B35303F11E031B78D31A5A1E07F5B35303F11E03197807F120030C3B0B44197807F1600399
:402C0000083B995407F5B35303F11E031B78013307F5B35202F11E02137007F5B35303F11E031A7807F5B35303F11B031B789A42B7D307F5B35303F11F031B78013307F55E
:402C4000B35202F11F02137007F5B35303F11D031A7807F120031C3B1B6813441B7807F5B35202F11F0212789A42FFF471AF01F0C2BD002307F5B35202F11F02137079E01F
:402C800007F5B35303F11F031B7807F5B35202F11B02127802FB03F31A4607F5B35303F110031B68134407F5B35202F10C02136007F5B35303F10C031B681A6807F12003FE
:402CC0001A60002307F5B35202F11E0213703AE007F5B35303F11D031B78322202FB03F31A1D07F5B35303F11F031B7807F5B35101F11B01097801FB03F31A4407F5B353D3
:402D000003F11B031B781A4407F5B35303F11E031B78D31A5A1E07F5B35303F11E031B7807F120010B44197807F16003083B995407F5B35303F11E031B78013307F5B35274
:402D400002F11E02137007F5B35303F11E031A7807F5B35303F11B031B789A42B8D307F5B35303F11F031B78013307F5B35202F11F02137007F5B35303F11D031A7807F1EF
:402D800020031C3B1B6813441B7807F5B35202F11F0212789A42FFF473AF00BF01F02BBD07F5B35303F11D031B780133023B342B01F2208501A252F823F000BF912E000075
:402DC00035330000F5470000F5470000F5470000F5470000D9370000F5470000F54700004D390000F5470000F5470000F5470000F5470000F5470000F5470000F5470000C9
:402E0000F5470000F5470000F5470000F5470000F5470000053B0000F5470000F5470000F5470000F5470000F5470000F5470000F5470000F5470000F5470000F5470000CE
:402E4000F5470000F5470000F5470000F5470000F5470000F5470000F5470000F5470000F5470000F5470000CB3B000075400000F5470000F5470000F5470000F54700004F
:402E800017450000F5470000F54700003746000007F5B35303F117031B78D34A742101FB03F3134403F20F131B78032B00F0208107F5B35303F117031B78CB4A742101FB71
:402EC00003F31344B0331B6818461DF025FB03464FF08F4118461DF027FC03461A4607F120031A60002307F5B35202F11F0213702DE007F5B35303F11D031B78322202FBAE
:402F000003F31A1D07F5B35303F11B031B781A4407F5B35303F11F031B78D31A5A1E07F5B35303F11F031B7807F120010B44197807F16003083B995407F5B35303F11F0308
:402F40001B78013307F5B35202F11F02137007F5B35303F11F031A7807F5B35303F11B031B789A42C5D307F5B35303F117031B789D4A742101FB03F31344B4331B681846FD
:402F80001DF0CAFA03464FF08F4118461DF0CCFB03461A4607F120031A60002307F5B35202F11F02137033E007F5B35303F11D031B78322202FB03F31A1D07F5B35303F18D
:402FC0001B031B781A4407F5B35303F11B031B781A4407F5B35303F11F031B78D31A5A1E07F5B35303F11F031B7807F120010B44197807F16003083B995407F5B35303F188
:403000001F031B78013307F5B35202F11F02137007F5B35303F11F031A7807F5B35303F11B031B789A42BFD307F5B35303F117031B786D4A742101FB03F31344B8331B68AA
:4030400018461DF069FA03464FF08F4118461DF06BFB03461A4607F120031A60002307F5B35202F11F02137034E007F5B35303F11D031B78322202FB03F31A1D07F5B35323
:4030800003F11B031B785B001A4407F5B35303F11B031B781A4407F5B35303F11F031B78D31A5A1E07F5B35303F11F031B7807F120010B44197807F16003083B995407F572
:4030C000B35303F11F031B78013307F5B35202F11F02137007F5B35303F11F031A7807F5B35303F11B031B789A42BED301F083BB07F5B35303F117031B783B4A742101FBAF
:4031000003F31344C8331B6818461DF005FA03464FF08F4118461DF007FB03461A4607F120031A60002307F5B35202F11F0213702DE007F5B35303F11D031B78322202FB95
:4031400003F31A1D07F5B35303F11B031B781A4407F5B35303F11F031B78D31A5A1E07F5B35303F11F031B7807F120010B44197807F16003083B995407F5B35303F11F03C6
:403180001B78013307F5B35202F11F02137007F5B35303F11F031A7807F5B35303F11B031B789A42C5D307F5B35303F117031B780D4A742101FB03F31344CC331B68184633
:4031C0001DF0AAF903464FF08F4118461DF0ACFA03461A4607F120031A60002307F5B35202F11F02137035E070A1FF1F07F5B35303F11D031B78322202FB03F31A1D07F556
:40320000B35303F11B031B781A4407F5B35303F11B031B781A4407F5B35303F11F031B78D31A5A1E07F5B35303F11F031B7807F120010B44197807F16003083B995407F545
:40324000B35303F11F031B78013307F5B35202F11F02137007F5B35303F11F031A7807F5B35303F11B031B789A42BFD307F5B35303F117031B78C74A742101FB03F3134482
:40328000D0331B6818461DF047F903464FF08F4118461DF049FA03461A4607F120031A60002307F5B35202F11F02137034E007F5B35303F11D031B78322202FB03F31A1DA3
:4032C00007F5B35303F11B031B785B001A4407F5B35303F11B031B781A4407F5B35303F11F031B78D31A5A1E07F5B35303F11F031B7807F120010B44197807F16003083B17
:40330000995407F5B35303F11F031B78013307F5B35202F11F02137007F5B35303F11F031A7807F5B35303F11B031B789A42BED301F061BA07F5B35303F117031B78954ADD
:40334000742101FB03F3134403F20F131B78032B00F0228107F5B35303F117031B788D4A742101FB03F31344BC331B6818461DF0D3F803464FF08F4118461DF0D5F903462A
:403380001A4607F120031A60002307F5B35202F11F0213702DE007F5B35303F11D031B78322202FB03F31A1D07F5B35303F11B031B781A4407F5B35303F11F031B78D31A8C
:4033C0005A1E07F5B35303F11F031B7807F120010B44197807F16003083B995407F5B35303F11F031B78013307F5B35202F11F02137007F5B35303F11F031A7807F5B35303
:4034000003F11B031B789A42C5D307F5B35303F117031B785F4A742101FB03F31344C0331B6818461DF078F803464FF08F4118461DF07AF903461A4607F120031A60002361
:4034400007F5B35202F11F02137033E007F5B35303F11D031B78322202FB03F31A1D07F5B35303F11B031B781A4407F5B35303F11B031B781A4407F5B35303F11F031B78C5
:40348000D31A5A1E07F5B35303F11F031B7807F120010B44197807F16003083B995407F5B35303F11F031B78013307F5B35202F11F02137007F5B35303F11F031A7807F55B
:4034C000B35303F11B031B789A42BFD307F5B35303F117031B782F4A742101FB03F31344C4331B6818461DF017F803464FF08F4118461DF019F903461A4607F120031A60B2
:40350000002307F5B35202F11F02137034E007F5B35303F11D031B78322202FB03F31A1D07F5B35303F11B031B785B001A4407F5B35303F11B031B781A4407F5B35303F13A
:403540001F031B78D31A5A1E07F5B35303F11F031B7807F120010B44197807F16003083B995407F5B35303F11F031B78013307F5B35202F11F02137007F5B35303F11F0373
:403580001A7807F5B35303F11B031B789A42BED301F031B970A1FF1F07F5B35303F117031B78B44A742101FB03F31344D4331B6818461CF0B1FF03464FF08F4118461DF075
:4035C000B3F803461A4607F120031A60002307F5B35202F11F0213702DE007F5B35303F11D031B78322202FB03F31A1D07F5B35303F11B031B781A4407F5B35303F11F03D6
:403600001B78D31A5A1E07F5B35303F11F031B7807F120010B44197807F16003083B995407F5B35303F11F031B78013307F5B35202F11F02137007F5B35303F11F031A7842
:4036400007F5B35303F11B031B789A42C5D307F5B35303F117031B78864A742101FB03F31344D8331B6818461CF056FF03464FF08F4118461DF058F803461A4607F12003BA
:403680001A60002307F5B35202F11F02137033E007F5B35303F11D031B78322202FB03F31A1D07F5B35303F11B031B781A4407F5B35303F11B031B781A4407F5B35303F19B
:4036C0001F031B78D31A5A1E07F5B35303F11F031B7807F120010B44197807F16003083B995407F5B35303F11F031B78013307F5B35202F11F02137007F5B35303F11F03F2
:403700001A7807F5B35303F11B031B789A42BFD307F5B35303F117031B78564A742101FB03F31344DC331B6818461CF0F5FE03464FF08F4118461CF0F7FF03461A4607F179
:4037400020031A60002307F5B35202F11F02137034E007F5B35303F11D031B78322202FB03F31A1D07F5B35303F11B031B785B001A4407F5B35303F11B031B781A4407F555
:40378000B35303F11F031B78D31A5A1E07F5B35303F11F031B7807F120010B44197807F16003083B995407F5B35303F11F031B78013307F5B35202F11F02137007F5B3534D
:4037C00003F11F031A7807F5B35303F11B031B789A42BED301F00FB8002307F5B35202F11F0213709DE007F5B35303F117031B78214A742101FB03F3134403F588731B78AB
:40380000184607F5B35303F11F031A78194903465B0003449B001344683351F8232007F5B35303F117031B781349742000FB03F30B4403F588731B781C4607F5B35303F169
:403840001F0319780B4823465B0023441B0103440B4403F29D131B7842FA03F31AB207F12003023B1A80002307F5B35202F11E0213703FE070A1FF1F4CA6FF1F07F5B35323
:4038800003F11D031B78322202FB03F31A1D07F5B35303F11F031B7807F5B35101F11B01097801FB03F31A4407F5B35303F11B031B781A4407F5B35303F11E031B78D31ABD
:4038C0005A1E07F5B35303F11E03197807F12003023B0B44197807F16003083B995407F5B35303F11E031B78013307F5B35202F11E02137007F5B35303F11E031A7807F5CB
:40390000B35303F11B031B789A42B7D307F5B35303F11F031B78013307F5B35202F11F02137007F5B35303F11D031A7807F120031C3B1B6813441B7807F5B35202F11F0263
:4039400012789A42FFF44FAF00F055BF07F5B35303F117031B78B54A742101FB03F31344E4331A6807F5B35303F117031B78B049742000FB03F30B4403F588731B7818467F
:40398000AA4903465B0003441B010B4403F29D131B781A4107F12003083B1A60002307F5B35202F11E0213702EE007F5B35303F11D031B78322202FB03F31A1D07F5B35362
:4039C00003F11B031B781A4407F5B35303F11E031B78D31A5A1E07F5B35303F11E03197807F12003083B0B44197807F16003083B995407F5B35303F11E031B78013307F56A
:403A0000B35202F11E02137007F5B35303F11E031A7807F5B35303F11B031B789A42C4D307F5B35303F117031B78804A742101FB03F31344E8331A6807F5B35303F1170330
:403A40001B787B49742000FB03F30B4403F588731B781846754903465B0003441B010B4403F29D131B781A4107F12003083B1A60002307F5B35202F11E02137034E007F5EE
:403A8000B35303F11D031B78322202FB03F31A1D07F5B35303F11B031B781A4407F5B35303F11B031B781A4407F5B35303F11E031B78D31A5A1E07F5B35303F11E0319781A
:403AC00007F12003083B0B44197807F16003083B995407F5B35303F11E031B78013307F5B35202F11E02137007F5B35303F11E031A7807F5B35303F11B031B789A42BED3CB
:403B000000F079BE494BD3F8A82207F5B35303F117031B784649742000FB03F30B4403F588731B781846414903465B0003441B010B4403F29D131B781A4107F12003083B7A
:403B40001A60002307F5B35202F11E0213702EE007F5B35303F11D031B78322202FB03F31A1D07F5B35303F11B031B781A4407F5B35303F11E031B78D31A5A1E07F5B353C6
:403B800003F11E03197807F12003083B0B44197807F16003083B995407F5B35303F11E031B78013307F5B35202F11E02137007F5B35303F11E031A7807F5B35303F11B0364
:403BC0001B789A42C4D300F016BE07F5B35303F116031B78154A742101FB03F3134403F20F131B78032B00F0248107F5B35303F116031B780D4A742101FB03F31344B033F5
:403C00001B6818461CF088FC03464FF08F4118461CF08AFD03461A4607F120031A60002307F5B35202F11F02137031E070A1FF1F4CA6FF1F07F5B35303F11D031B78322284
:403C400002FB03F31A1D07F5B35303F11B031B781A4407F5B35303F11F031B78D31A5A1E07F5B35303F11F031B7807F120010B44197807F16003083B995407F5B35303F1E0
:403C80001F031B78013307F5B35202F11F02137007F5B35303F11F031A7807F5B35303F11B031B789A42C5D307F5B35303F116031B78CE4A742101FB03F31344B4331B68BC
:403CC00018461CF029FC03464FF08F4118461CF02BFD03461A4607F120031A60002307F5B35202F11F02137033E007F5B35303F11D031B78322202FB03F31A1D07F5B35316
:403D000003F11B031B781A4407F5B35303F11B031B781A4407F5B35303F11F031B78D31A5A1E07F5B35303F11F031B7807F120010B44197807F16003083B995407F5B3533A
:403D400003F11F031B78013307F5B35202F11F02137007F5B35303F11F031A7807F5B35303F11B031B789A42BFD307F5B35303F116031B789D4A742101FB03F31344B833BD
:403D80001B6818461CF0C8FB03464FF08F4118461CF0CAFC03461A4607F120031A60002307F5B35202F11F02137034E007F5B35303F11D031B78322202FB03F31A1D07F59B
:403DC000B35303F11B031B785B001A4407F5B35303F11B031B781A4407F5B35303F11F031B78D31A5A1E07F5B35303F11F031B7807F120010B44197807F16003083B99541B
:403E000007F5B35303F11F031B78013307F5B35202F11F02137007F5B35303F11F031A7807F5B35303F11B031B789A42BED300F0E2BC07F5B35303F116031B786B4A7421D3
:403E400001FB03F31344C8331B6818461CF064FB03464FF08F4118461CF066FC03461A4607F120031A60002307F5B35202F11F0213702DE007F5B35303F11D031B7832228B
:403E800002FB03F31A1D07F5B35303F11B031B781A4407F5B35303F11F031B78D31A5A1E07F5B35303F11F031B7807F120010B44197807F16003083B995407F5B35303F19E
:403EC0001F031B78013307F5B35202F11F02137007F5B35303F11F031A7807F5B35303F11B031B789A42C5D307F5B35303F116031B783E4A742101FB03F31344CC331B68F2
:403F000018461CF009FB03464FF08F4118461CF00BFC03461A4607F120031A60002307F5B35202F11F02137033E007F5B35303F11D031B78322202FB03F31A1D07F5B35315
:403F400003F11B031B781A4407F5B35303F11B031B781A4407F5B35303F11F031B78D31A5A1E07F5B35303F11F031B7807F120010B44197807F16003083B995407F5B353F8
:403F800003F11F031B78013307F5B35202F11F02137007F5B35303F11F031A7807F5B35303F11B031B789A42BFD307F5B35303F116031B780D4A742101FB03F31344D033F3
:403FC0001B6818461CF0A8FA03464FF08F4118461CF0AAFB03461A4607F120031A60002307F5B35202F11F02137036E070A1FF1F07F5B35303F11D031B78322202FB03F39D
:404000001A1D07F5B35303F11B031B785B001A4407F5B35303F11B031B781A4407F5B35303F11F031B78D31A5A1E07F5B35303F11F031B7807F120010B44197807F16003D5
:40404000083B995407F5B35303F11F031B78013307F5B35202F11F02137007F5B35303F11F031A7807F5B35303F11B031B789A42BED3C0E307F5B35303F116031B78D34A79
:40408000742101FB03F3134403F20F131B78032B00F01F8107F5B35303F116031B78CB4A742101FB03F31344BC331B6818461CF033FA03464FF08F4118461CF035FB0346E1
:4040C0001A4607F120031A60002307F5B35202F11F0213702DE007F5B35303F11D031B78322202FB03F31A1D07F5B35303F11B031B781A4407F5B35303F11F031B78D31A3F
:404100005A1E07F5B35303F11F031B7807F120010B44197807F16003083B995407F5B35303F11F031B78013307F5B35202F11F02137007F5B35303F11F031A7807F5B353B5
:4041400003F11B031B789A42C5D307F5B35303F116031B789D4A742101FB03F31344C0331B6818461CF0D8F903464FF08F4118461CF0DAFA03461A4607F120031A60002317
:4041800007F5B35202F11F02137033E007F5B35303F11D031B78322202FB03F31A1D07F5B35303F11B031B781A4407F5B35303F11B031B781A4407F5B35303F11F031B7878
:4041C000D31A5A1E07F5B35303F11F031B7807F120010B44197807F16003083B995407F5B35303F11F031B78013307F5B35202F11F02137007F5B35303F11F031A7807F50E
:40420000B35303F11B031B789A42BFD307F5B35303F116031B786D4A742101FB03F31344C4331B6818461CF077F903464FF08F4118461CF079FA03461A4607F120031A6067
:40424000002307F5B35202F11F02137034E007F5B35303F11D031B78322202FB03F31A1D07F5B35303F11B031B785B001A4407F5B35303F11B031B781A4407F5B35303F1ED
:404280001F031B78D31A5A1E07F5B35303F11F031B7807F120010B44197807F16003083B995407F5B35303F11F031B78013307F5B35202F11F02137007F5B35303F11F0326
:4042C0001A7807F5B35303F11B031B789A42BED391E207F5B35303F116031B783B4A742101FB03F31344D4331B6818461CF014F903464FF08F4118461CF016FA03461A4624
:4043000007F120031A60002307F5B35202F11F0213702DE007F5B35303F11D031B78322202FB03F31A1D07F5B35303F11B031B781A4407F5B35303F11F031B78D31A5A1EE4
:4043400007F5B35303F11F031B7807F120010B44197807F16003083B995407F5B35303F11F031B78013307F5B35202F11F02137007F5B35303F11F031A7807F5B35303F1F7
:404380001B031B789A42C5D307F5B35303F116031B780E4A742101FB03F31344D8331B6818461CF0B9F803464FF08F4118461CF0BBF903461A4607F120031A60002307F584
:4043C000B35202F11F02137036E000BF70A1FF1F07F5B35303F11D031B78322202FB03F31A1D07F5B35303F11B031B781A4407F5B35303F11B031B781A4407F5B35303F1F6
:404400001F031B78D31A5A1E07F5B35303F11F031B7807F120010B44197807F16003083B995407F5B35303F11F031B78013307F5B35202F11F02137007F5B35303F11F03A4
:404440001A7807F5B35303F11B031B789A42BFD307F5B35303F116031B78C34A742101FB03F31344DC331B6818461CF055F803464FF08F4118461CF057F903461A4607F10C
:4044800020031A60002307F5B35202F11F02137034E007F5B35303F11D031B78322202FB03F31A1D07F5B35303F11B031B785B001A4407F5B35303F11B031B781A4407F508
:4044C000B35303F11F031B78D31A5A1E07F5B35303F11F031B7807F120010B44197807F16003083B995407F5B35303F11F031B78013307F5B35202F11F02137007F5B35300
:4045000003F11F031A7807F5B35303F11B031B789A42BED36FE107F5B35303F116031B78924A742101FB03F3134403F588731B78184607F5B35303F11F031A788A49034669
:404540005B0003449B001344683351F8232007F5B35303F116031B788449742000FB03F30B4403F588731B781C4607F5B35303F11F0319787C4823465B0023441B0103445A
:404580000B4403F29D131B7842FA03F31AB207F12003023B1A80002307F5B35202F11E0213703BE007F5B35303F11D031B78322202FB03F31A1D07F5B35303F11F031B78DD
:4045C00007F5B35101F11B01097801FB03F31A4407F5B35303F11B031B781A4407F5B35303F11E031B78D31A5A1E07F5B35303F11E03197807F12003023B0B44197807F1F0
:404600006003083B995407F5B35303F11E031B78013307F5B35202F11E02137007F5B35303F11E031A7807F5B35303F11B031B789A42B7D3DFE007F5B35303F116031B785B
:40464000494A742101FB03F31344E4331A6807F5B35303F116031B784449742000FB03F30B4403F588731B7818463F4903465B0003441B010B4403F29D131B781A4107F1E0
:404680002003083B1A60002307F5B35202F11E0213702EE007F5B35303F11D031B78322202FB03F31A1D07F5B35303F11B031B781A4407F5B35303F11E031B78D31A5A1E17
:4046C00007F5B35303F11E03197807F12003083B0B44197807F16003083B995407F5B35303F11E031B78013307F5B35202F11E02137007F5B35303F11E031A7807F5B35329
:4047000003F11B031B789A42C4D307F5B35303F116031B78144A742101FB03F31344E8331A6807F5B35303F116031B780F49742000FB03F30B4403F588731B7818460A49E1
:4047400003465B0003441B010B4403F29D131B781A4107F12003083B1A60002307F5B35202F11E02137038E070A1FF1F4CA6FF1F07F5B35303F11D031B78322202FB03F377
:404780001A1D07F5B35303F11B031B781A4407F5B35303F11B031B781A4407F5B35303F11E031B78D31A5A1E07F5B35303F11E03197807F12003083B0B44197807F1600368
:4047C000083B995407F5B35303F11E031B78013307F5B35202F11E02137007F5B35303F11E031A7807F5B35303F11B031B789A42BED300E000BF07F5B35303F11D031B780F
:404800009B0007F5B45202F11C02126813441A6807F140031C3B114618461CF0DDFE07F140031C3B18461CF01CFF034607F5B35202F11A02137007F5B35303F11D031A78AE
:4048400007F12003183B1B6813441B78002B40F0D98407F5B35303F11C031B7807F5B45202F11802126813441B78013B0B2B00F2BB8401A252F823F0A9480000534A000059
:40488000294B00007D4B0000E14B00003D4C0000594D0000E14D0000754E00001F4F0000735000006751000007F5B35303F110031B681B78072B00F2908401A252F823F030
:4048C000E1480000054900002B4900005949000085490000AF490000E34900000D4A000007F140031C3B18461CF0BBFE03461A4607F140031C3B1344DA4A106818601279FC
:404900001A71A5E007F140031C3B18461CF0A9FE03461A4607F140031C3B1344D2491A460B4603CB1060516092E007F140031C3B18461CF096FE03461A4607F140031C3B3A
:404940001344CA4A1D4614460FCC28606960AA60EB6023882B827BE007F140031C3B18461CF07FFE03461A4607F140031C3B1344BF4A1C46134607CB20606160A2601B8854
:40498000A38165E007F140031C3B18461CF069FE03461A4607F140031C3B1344B5491A460B4603CB106051601B88138150E007F140031C3B18461CF054FE03461A4607F1A5
:4049C00040031C3B1344AC4A1D4614460FCC28606960AA60EB602388A2782B821346AB7436E007F140031C3B18461CF03AFE03461A4607F140031C3B1344A0491A460B4632
:404A000003CB106051601B88138121E007F140031C3B18461CF025FE03461A4607F140031C3B1344964A14469E4604F1200C754626460FCE28606960AA60EB6010340EF172
:404A4000100E6445F3D1724623461B88138000BFC3E307F5B35303F110031B681B78032B00F2BD8301A252F823F000BF7D4A0000A74A0000CB4A0000F54A000007F140036A
:404A80001C3B18461CF0EDFD03461A4607F140031C3B13447B491A460B4603CB106051601B8813813FE007F140031C3B18461CF0D8FD03461A4607F140031C3B1344724AE0
:404AC0001068186012791A712DE007F140031C3B18461CF0C6FD03461A4607F140031C3B13446A491A460B4603CB106051601B78137218E007F140031C3B18461CF0B1FD45
:404B000003461A4607F140031C3B1344604A1D4614460FCC28606960AA60EB6020682861A388AB8200BF5AE307F5B35303F110031B681B78002B11D007F140031C3B18467B
:404B40001CF08FFD03461A4607F140031C3B1344504A1068186012791A7145E307F140031C3B18461CF07DFD03461A4607F140031C3B1344484A1068186035E307F5B3539F
:404B800003F110031B681B78002B02D0012B14D02AE307F140031C3B18461CF062FD03461A4607F140031C3B13443C4A106818609188927999809A7111E007F140031C3B90
:404BC00018461CF04EFD03461A4607F140031C3B1344334A1068186092889A8000BF03E307F5B35303F110031B681B78002B02D0012B12D0F8E207F140031C3B18461CF028
:404C000030FD03461A4607F140031C3B1344254A1068186012791A710FE007F140031C3B18461CF01EFD03461A4607F140031C3B13441D4A1068186000BFD5E207F5B353D9
:404C400003F110031B681B78032B00F2CA8201A252F823F0AD4C0000D14C0000FD4C00002B4D00005834020060340200683402007C3402008C34020098340200AC340200EE
:404C8000B8340200DC340200E8340200F0340200FC340200143502001C350200243502002C350200343502003C35020007F140031C3B18461CF0D5FC03461A4607F1400393
:404CC0001C3B1344CD4A1068186092889A8042E007F140031C3B18461CF0C3FC03461A4607F140031C3B1344C54A1C46134607CB20606160A2601B88A3812CE007F140036F
:404D00001C3B18461CF0ADFC03461A4607F140031C3B1344BB4A1D4614460FCC28606960AA60EB6023882B8215E007F140031C3B18461CF096FC03461A4607F140031C3B1E
:404D40001344B14A1C46134607CB20606160A2601B78237300BF44E207F5B35303F110031B681B78012B16D0022B26D0002B00D035E007F140031C3B18461CF072FC0346EC
:404D80001A4607F140031C3B13449C4A1068186092889A8023E007F140031C3B18461CF060FC03461A4607F140031C3B1344974A1068186012791A7111E007F140031C3B49
:404DC00018461CF04EFC03461A4607F140031C3B13448F4A1068186092889A8000BF03E207F5B35303F110031B681B78012B1AD0022B2CD0002B00D0F6E107F140031C3B0A
:404E000018461CF02EFC03461A4607F140031C3B1344804A1C46134607CB20606160A2601B88A38125E007F140031C3B18461CF018FC03461A4607F140031C3B1344764A84
:404E4000106818609188927999809A7111E007F140031C3B18461CF004FC03461A4607F140031C3B13446D4A1068186012791A7100BFB9E107F5B35303F110031B681B7846
:404E8000012B1BD0022B32D0002B00D0ACE107F140031C3B18461CF0E4FB03461A4607F140031C3B13445E4A1D4614460FCC28606960AA60EB60206828612FE007F1400376
:404EC0001C3B18461CF0CDFB03461A4607F140031C3B1344534A1D4614460FCC28606960AA60EB6020682861A388AB8216E007F140031C3B18461CF0B4FB03461A4607F111
:404F000040031C3B1344484A1D4614460FCC28606960AA60EB6023782B7400BF64E107F5B35303F110031B681B78042B00F25B8101A252F823F000BF4D4F0000794F000033
:404F4000A74F0000D34F00003D50000007F140031C3B18461CF085FB03461A4607F140031C3B1344314A1C46134607CB20606160A2601B88A3817BE007F140031C3B184621
:404F80001CF06FFB03461A4607F140031C3B1344274A1D4614460FCC28606960AA60EB6023882B8264E007F140031C3B18461CF058FB03461A4607F140031C3B13441D4A56
:404FC0001C46134607CB20606160A2601B88A3814EE007F140031C3B18461CF042FB03461A4607F140031C3B1344134A1C4615460FCD20606160A260E36039E04435020011
:405000004C3502005C35020070350200803502008835020090350200A0350200A8350200B0350200C8350200E0350200F435020004360200183602002836020007F1400371
:405040001C3B18461CF00DFB03461A4607F140031C3B1344714A1D4614460FCC28606960AA60EB602388A2782B821346AB7400BFB9E007F5B35303F110031B681B78002B50
:4050800002D0012B37D0AFE0654B93F8AC30042B18D107F140031C3B18461CF0E2FA03461A4607F140031C3B13445E4A1D4614460FCC28606960AA60EB6020682861A388A1
:4050C000AB824FE007F140031C3B18461CF0C9FA03461A4607F140031C3B1344524A1D4614460FCC28606960AA60EB6020682861A388AB8236E04A4B93F8AC30042B18D196
:4051000007F140031C3B18461CF0ABFA03461A4607F140031C3B1344444A1D4614460FCC28606960AA60EB6020682861A388AB8217E007F140031C3B18461CF092FA03463F
:405140001A4607F140031C3B1344394A1D4614460FCC28606960AA60EB6020682861A388AB8200BF40E007F5B35303F110031B681B78002B02D0012B17D035E007F140035E
:405180001C3B18461CF06DFA03461A4607F140031C3B1344274A1D4614460FCC28606960AA60EB602068286116E007F140031C3B18461CF056FA03461A4607F140031C3BF8
:4051C00013441D4A1D4614460FCC28606960AA60EB602068286100BF06E000BF04E000BF02E000BF00E000BF07F140031C3B18461CF037FA0346DBB2013307F5B35202F130
:405200001A02137007F5B35303F11A031B7807F5B35202F11F02137056E000BF3C36020070A1FF1F50360200683602008036020098360200B0360200C836020007F5B3535F
:4052400003F11D031B78322202FB03F31A1D07F5B35303F11B03197807F5B35303F11D03187807F120031C3B1B6803441B7803FB01F31A4407F5B35303F11A031B781A449B
:4052800007F5B35303F11F031B78D21A07F5B35303F11A03197807F5B35303F11F031B78C91A07F140031C3B595C07F16003083B995407F5B35303F11F031B78013B07F570
:4052C000B35202F11F02137007F5B35303F11F031B78002BB2D107F5B35303F11D031A7807F12003183B1B6813441B78002B3CD107F5B35303F11D031B78322202FB03F30E
:405300001A1D07F5B35303F11B03197807F5B35303F11D03187807F120031C3B1B6803441B7803FB01F31A4407F5B35303F11A031B781A4407F5B35303F11C031B7807F524
:40534000B45101F1180109680B44197807F16003083B995407F5B35303F11C031B78013307F5B35202F11C02137007F5B35303F11D031A7807F12003183B1B6813441B784D
:40538000002B30D107F5B35303F11D031B78322202FB03F31A1D07F5B35303F11B03197807F5B35303F11D03187807F120031C3B1B6803441B7803FB01F31A4407F5B3532E
:4053C00003F11A031B7813449A1C07F5B35303F11D031B78394609680B44197807F16003083B99542FE007F5B35303F11D031B78322202FB03F31A1D07F5B35303F11B03AE
:40540000197807F5B35303F11D03187807F120031C3B1B6803441B7803FB01F31A4407F5B35303F11A031B7813445A1C07F5B35303F11D031B78394609680B44197807F132
:405440006003083B995407F5B35303F11D031B78013307F5B35202F11D02137007F5B35303F11D031B784E2B7DF639A8002307F5B35202F11E02137071E007F5B35303F1AF
:405480001E031B789B0007F5B55202F10402126813441B6818461CF0E4F8034607F5B35202F11A02137007F5B35303F11A031B7807F5B35202F11F0213703EE007F5B353CD
:4054C00003F11E031B78962202FB03F303F5776207F5B35303F11A031B781A4407F5B35303F11F031B78D21A07F5B35303F11E031B789B0007F5B55101F1040109680B44EF
:405500001B6807F5B35101F11A01087807F5B35101F11F010978411A0B44197807F16003083B995407F5B35303F11F031B78013B07F5B35202F11F02137007F5B35303F18D
:405540001F031B78002BB9D107F5B35303F11E031B78013307F5B35202F11E02137007F5B35303F11E031B780A2B86D907F5B35303F118031B885C1E07F5B35303F11803CF
:405580001B88DBB2013BDAB207F16003083B1146184607F0C5FF03461A4607F16003083B1A5507F5B35303F118031A8807F16003083B1146184607F01FFF00BF07F5B4574E
:4055C0000437BD46F0BD00BFB0B5ADF5B76D04AF0246BB1D1A80002387F89D35012387F89C35054BC7F8A035BB1D1B88002B07D0024BC7F8A03503E070A1FF1F4CA6FF1F1D
:40560000D7F8A03503F1A00207F234431A6097F89D35742202FB03F3B033D7F8A0251A4407F234435A6097F89D35742202FB03F3B833D7F8A02513441A1D07F234439A60FC
:4056400097F89D35742202FB03F3E033D7F8A0251A4407F23443DA6097F89D35742202FB03F303F58473D7F8A02513449A1D07F234431A6197F89D35742202FB03F303F549
:405680008473D7F8A0251344DA1D07F234435A6197F89D35D7F8A025742101FB03F3134403F588731B781A4613465B0013441B0103F5CC73D7F8A02513445A1D07F23443FD
:4056C0009A6197F89D35D7F8A025742101FB03F3134403F588731B781A4613465B0013441B0103F5D073D7F8A0251A4407F23443DA6197F89D35D7F8A025742101FB03F37B
:40570000134403F588731B781A4613465B0013441B0103F5D473D7F8A02513441A1D07F234431A6297F89D35742202FB03F3E033D7F8A0251344DA1C07F234435A6297F81F
:405740009D35742202FB03F3E033D7F8A02513441A1D07F234439A6297F89D35742202FB03F3E833D7F8A02513441A1D07F23443DA6297F89D35742202FB03F303F5847381
:40578000D7F8A02513441A1D07F234431A63D7F8A03503F5FC7207F234435A63D7F8A03503F2062207F234439A63D7F8A03503F5FE7207F23443DA63D7F8A03503F50172AD
:4057C00007F234431A6497F89D35D7F8A025742101FB03F3134403F588731B781A4613465B0013441B0103F5DC73D7F8A0251A4407F234435A6497F89D35D7F8A0257421EA
:4058000001FB03F3134403F588731B781A4613465B0013441B0103F5DC73D7F8A02513441A1D07F234439A6497F89D35742202FB03F3E033D7F8A02513445A1C07F234436D
:40584000DA6497F89D35742202FB03F303F58873D7F8A02513441A1D07F234431A6597F89D35742202FB03F3F033D7F8A02513441A1D07F234435A65D7F8A03503F1A10263
:4058800007F234439A65D7F8A03503F52A7207F23443DA65D7F8A03503F52B7207F234431A66D7F8A03503F52C7207F234435A66D7F8A03503F52D7207F234439A66D7F885
:4058C000A03503F2072207F23443DA66D7F8A03503F1A70207F234431A67D7F8A03503F5027207F234435A67D7F8A03503F22E2207F234439A67D7F8A03503F1A80207F2FD
:405900003443DA67D7F8A03503F50A7207F23443C3F88020D7F8A03503F2092207F23443C3F88420D7F8A03503F20A2207F23443C3F88820D7F8A03503F1AB0207F23443EC
:40594000C3F88C20D7F8A03593F8AB305B0103F51273D7F8A0251A4407F23443C3F8902097F89D35742202FB03F303F58873D7F8A0251A4407F23443C3F8942097F89D3501
:40598000742202FB03F3E033D7F8A02513449A1C07F23443C3F8982097F89D35742202FB03F303F58873D7F8A02513445A1C07F23443C3F89C2097F89D35742202FB03F3B8
:4059C00003F58873D7F8A02513449A1C07F23443C3F8A02097F89D35D7F8A025742101FB03F3134403F588731B781A4613465B0013441B0103F5DC73D7F8A02513445A1CA0
:405A000007F23443C3F8A42097F89D35D7F8A025742101FB03F3134403F588731B781A4613465B0013441B0103F5DC73D7F8A02513445A1D07F23443C3F8A820D7F8A03557
:405A400003F1A90207F23443C3F8AC2097F89C35742202FB03F3B033D7F8A0251A4407F23443C3F8B02097F89C35742202FB03F3B833D7F8A02513441A1D07F23443C3F8B6
:405A8000B42097F89C35742202FB03F3E033D7F8A0251A4407F23443C3F8B82097F89C35742202FB03F303F58473D7F8A02513449A1D07F23443C3F8BC2097F89C357422AA
:405AC00002FB03F303F58473D7F8A0251344DA1D07F23443C3F8C02097F89C35D7F8A025742101FB03F3134403F588731B781A4613465B0013441B0103F5CC73D7F8A0252D
:405B000013445A1D07F23443C3F8C42097F89C35D7F8A025742101FB03F3134403F588731B781A4613465B0013441B0103F5D073D7F8A0251A4407F23443C3F8C82097F8DA
:405B40009C35D7F8A025742101FB03F3134403F588731B781A4613465B0013441B0103F5D473D7F8A02513441A1D07F23443C3F8CC2097F89C35742202FB03F3E033D7F892
:405B8000A0251344DA1C07F23443C3F8D02097F89C35742202FB03F3E033D7F8A02513441A1D07F23443C3F8D42097F89C35742202FB03F3E833D7F8A02513441A1D07F25C
:405BC0003443C3F8D82097F89C35742202FB03F303F58473D7F8A02513441A1D07F23443C3F8DC2097F89C35D7F8A025742101FB03F3134403F588731B781A4613465B00EE
:405C000013441B0103F5DC73D7F8A0251A4407F23443C3F8E02097F89C35D7F8A025742101FB03F3134403F588731B781A4613465B0013441B0103F5DC73D7F8A02513447C
:405C40001A1D07F23443C3F8E42097F89C35742202FB03F3E033D7F8A02513445A1C07F23443C3F8E82097F89C35742202FB03F303F58873D7F8A02513441A1D07F23443C0
:405C8000C3F8EC2097F89C35742202FB03F3F033D7F8A02513441A1D07F23443C3F8F02097F89C35742202FB03F303F58873D7F8A0251A4407F23443C3F8F42097F89C3547
:405CC000742202FB03F3E033D7F8A02513449A1C07F23443C3F8F82097F89C35742202FB03F303F58873D7F8A02513445A1C07F23443C3F8FC2097F89C35742202FB03F3B7
:405D000003F58873D7F8A02513449A1C07F23443C3F8002197F89C35D7F8A025742101FB03F3134403F588731B781A4613465B0013441B0103F5DC73D7F8A02513445A1CFC
:405D400007F23443C3F8042197F89C35D7F8A025742101FB03F3134403F588731B781A4613465B0013441B0103F5DC73D7F8A02513445A1D07F23443C3F80821D7F8A03553
:405D800003F5CC7207F23443C3F80C21D7F8A03503F5E47207F23443C3F81021D7F8A03503F22F2207F23443C3F81421D7F8A03503F50C7207F23443C3F81821D7F8A0359B
:405DC00003F2362207F23443C3F81C21D7F8A03503F50F7207F23443C3F82021D7F8A03503F52E7207F23443C3F82421D7F8A03503F2BA2207F23443C3F82821D7F8A0352C
:405E000003F52F7207F23443C3F82C21D7F8A03503F1AC0207F23443C3F83021D7F8A03503F53A7207F23443C3F83421D7F8A03503F2EA2207F23443C3F83821D7F8A035FA
:405E400003F2EE2207F23443C3F83C21D7F8A03503F5327207F23443C3F84021D7F8A03503F2C92207F23443C3F84421D7F8A03503F5367207F23443C3F84821D7F8A03539
:405E800003F5377207F23443C3F84C21D7F8A03503F5387207F23443C3F8502107F57773F64A1846114655231A461AF0C1FD07F5617301221A7007F5617303225A7007F514
:405EC000617303229A7007F561730122DA7007F5617301221A7107F5617301225A7107F5617303229A7107F561730322DA7107F5617303221A7207F5617301225A7207F5AA
:405F0000617302229A7207F561730222DA7207F5617301221A7307F5617302225A7307F5617301229A7307F561730222DA7307F5617302221A7407F5617301225A7407F55C
:405F4000617301229A7407F561730122DA7407F5617301221A7507F5617306225A7507F5617303229A7507F561730122DA7507F5617301221A7607F5617301225A7607F50A
:405F8000617301229A7607F561730122DA7607F5617301221A7707F5617301225A7707F5617301229A7707F561730122DA7707F56173062283F8202007F56173012283F8E6
:405FC000212007F56173052283F8222007F56173012283F8232007F56173062283F8242007F56173012283F8252007F56173012283F8262007F56173012283F8272007F52C
:406000006173012283F8282007F56173032283F8292007F56173032283F82A2007F56173012283F82B2007F56173032283F82C2007F56173032283F82D2007F5617301220E
:4060400083F82E2007F56173012283F82F2007F56173012283F8302007F56173032283F8312007F56173032283F8322007F56173032283F8332007F56173012283F83420D4
:4060800007F56173022283F8352007F56173022283F8362007F56173012283F8372007F56173012283F8382007F56173012283F8392007F56173012283F83A2007F561736D
:4060C000012283F83B2007F56173062283F83C2007F56173012283F83D2007F56173012283F83E2007F56173012283F83F2007F56173012283F8402007F56173032283F836
:40610000412007F56173032283F842205C4B1A7807F5617383F84320594B5A7807F5617383F8442007F56173012283F8452007F56173062283F8462007F56173062283F801
:40614000472007F56173012283F8482007F56173012283F8492007F56173012283F84A2007F56173022283F84B2007F56173012283F84C2007F56173012283F84D2007F5A8
:406180006173022283F84E2007F56173012283F84F2007F56173012283F8502007F56173012283F8512007F56173012283F8522007F56173012283F8532007F561730122B0
:4061C00083F8542007F54B7300221A7097F89D350A33DAB207F54B735A7097F89D350A33DAB207F54B739A7097F89D350A33DAB207F54B73DA7097F89D350A33DAB207F55A
:406200004B731A7197F89D350A33DAB207F54B735A7197F89D35D7F8A025742101FB03F3134403F588731B781433DAB207F54B739A7197F89D35D7F8A025742101FB03F3F9
:40624000134403F588731B781433DAB207F54B73DA7197F89D35D7F8A025742101FB03F3134403F588731B781433DAB207F54B731A7297F89D350A3304E000BFA43A0200D6
:4062800068A0FF1FDAB207F54B735A7297F89D350A33DAB207F54B739A7297F89D350A33DAB207F54B73DA7297F89D350A33DAB207F54B731A7307F54B731E225A7307F552
:4062C0004B731E229A7307F54B731E22DA7307F54B731E221A7497F89D35D7F8A025742101FB03F3134403F588731B781433DAB207F54B735A7497F89D35D7F8A025742186
:4063000001FB03F3134403F588731B781433DAB207F54B739A7497F89D350A33DAB207F54B73DA7497F89D350A33DAB207F54B731A7597F89D350A33DAB207F54B735A759B
:4063400007F54B7300229A7507F54B734622DA7507F54B7346221A7607F54B7346225A7607F54B7346229A7607F54B731E22DA7607F54B7300221A7707F54B7328225A775F
:4063800007F54B7332229A7707F54B730022DA7707F54B73322283F8202007F54B73282283F8212007F54B73282283F8222007F54B73002283F82320D7F8A03593F8AB30A3
:4063C0003C33DAB207F54B7383F8242097F89D350A33DAB207F54B7383F8252097F89D350A33DAB207F54B7383F8262097F89D350A33DAB207F54B7383F8272097F89D35D9
:406400000A33DAB207F54B7383F8282097F89D35D7F8A025742101FB03F3134403F588731B781433DAB207F54B7383F8292097F89D35D7F8A025742101FB03F3134403F5A1
:4064400088731B781433DAB207F54B7383F82A2007F54B73002283F82B2097F89C350A33DAB207F54B7383F82C2097F89C350A33DAB207F54B7383F82D2097F89C350A33A8
:40648000DAB207F54B7383F82E2097F89C350A33DAB207F54B7383F82F2097F89C350A33DAB207F54B7383F8302097F89C35D7F8A025742101FB03F3134403F588731B781A
:4064C0001433DAB207F54B7383F8312097F89C35D7F8A025742101FB03F3134403F588731B781433DAB207F54B7383F8322097F89C35D7F8A025742101FB03F3134403F5C7
:4065000088731B781433DAB207F54B7383F8332097F89C350A33DAB207F54B7383F8342097F89C350A33DAB207F54B7383F8352097F89C350A33DAB207F54B7383F8362059
:4065400097F89C350A33DAB207F54B7383F8372097F89C35D7F8A025742101FB03F3134403F588731B781433DAB207F54B7383F8382097F89C35D7F8A025742101FB03F333
:40658000134403F588731B781433DAB207F54B7383F8392097F89C350A33DAB207F54B7383F83A2097F89C350A33DAB207F54B7383F83B2097F89C350A33DAB207F54B7349
:4065C00083F83C2097F89C350A33DAB207F54B7383F83D2097F89C350A33DAB207F54B7383F83E2097F89C350A33DAB207F54B7383F83F2097F89C350A33DAB207F54B73AD
:4066000083F8402097F89C35D7F8A025742101FB03F3134403F588731B781433DAB207F54B7383F8412097F89C35D7F8A025742101FB03F3134403F588731B781433DAB293
:4066400007F54B7383F8422007F54B73142283F8432007F54B73152283F8442007F54B73322283F8452007F54B73322283F8462007F54B73322283F8472007F54B7332220A
:4066800083F8482007F54B736E2283F8492007F54B736E2283F84A2007F54B736E2283F84B2007F54B73002283F84C2007F54B73642283F84D2007F54B73642283F84E2056
:4066C00007F54B73642283F84F2007F54B73502283F8502007F54B73502283F8512007F54B735A2283F8522007F54B735A2283F8532007F54B735A2283F8542007F5EC737A
:40670000CC4A184611464FF4AA731A461AF090F907F5B07300221A6004337222002118461AF091F907F5B07064230A22C2491AF053FF07F5947300221A600433342200211F
:4067400018461AF080F9D7F8A03593F8AC30042B10D107F59473B94A1C4615460FCD0FC40FCD0FC40FCD0FC495E803002060043421700FE007F59473B14A1C4615460FCDFE
:406780000FC40FCD0FC40FCD0FC495E8030020600434217007F1F803AA4A1A6007F1F803A94A5A6007F1F803A84A9A6007F1F803A74ADA6007F1F803A64A1A6107F1F80390
:4067C000A54A5A6107F1F80307F5B0729A6107F1F803A24ADA6107F1F803A14A1A6207F1F803A04A5A6207F1F80307F594729A6207F1F8039C4ADA6207F1D8039B4A1C46B6
:40680000154628686968AA68EB680FC428696969AA69EB690FC407F1CC03954A1068516803C3127A1A7007F1B803924A1C46154628686968AA68EB680FC42B8A2380242390
:4068400087F89B35002387F8A635002387F8A73521E097F8A63507F1CC02D35C1A4697F8A73501339A420BD197F8A73507F160020121D15497F8A635013387F8A63505E0CE
:4068800097F8A73507F160020021D15497F8A735013387F8A73597F8A735542BD9D9002387F8A635002387F8A73521E097F8A63507F1B802D35C1A4697F8A73501339A4215
:4068C0000BD197F8A73507F108020121D15497F8A635013387F8A63505E097F8A73507F108020021D15497F8A735013387F8A73597F8A735542BD9D9BB1D1B88002B17D154
:4069000007F54B7407F5617207F5777107F2344007F1F803039307F16003029307F5EC73019307F1D80300932346FBF763FDDFE2BB1D1B88DBB2013B87F89A3597F89A3542
:4069400007F57772D35C092B22D801A252F823F079690000796900007969000081690000816900008969000089690000896900009169000079690000012387F8A53507E045
:40698000022387F8A53503E0042387F8A53500BF97F89A3507F10802D35C002B40F03B8297F89A3507F57772D35C092B00F23C8201A252F823F000BFE1690000DF6A0000E8
:4069C000E1690000316B0000C76B00005B6C0000EF6C0000836D0000296E00002D6A0000002387F8A73517E097F89A2507F2344353F8223097F8A72597F8A51501FB02F2DB
:406A0000134497F8A72503321B498A5C1A7097F8A735013387F8A73597F89A3507F56172D35C97F8A7259A42DED3FEE1002387F8A7353BE0C8430200E03602005437020033
:406A40008C370200C43702005038020090380200BC380200D4380200FC3802005839020094390200F4390200703A02001C4502003C450200484502000C96FF1F97F89A2506
:406A800007F2344353F8223097F8A72597F8A51501FB02F2134497F8A7250332E1498A5C1A7097F8A735013387F8A73597F89A3507F56172D35C97F8A7259A42DED397F8E7
:406AC0009A2507F2344353F8223097F8A72597F8A51501FB02F2134400221A70A5E1002387F8A7351AE097F89A2507F2344353F8223097F8A72597F8A51501FB02F21344EF
:406B000097F8A7250332C7490A4492F90020D2B21A7097F8A735013387F8A73597F89A3507F56172D35C97F8A7259A42DBD37CE1002387F8A7353CE097F8A73597F8A525B8
:406B400002FB03F30333B74A1344B3F90030A7F89835002387F8A63520E097F89A2507F2344353F8222097F8A73597F8A51501FB03F3184697F8A51597F8A635CB1A0344A1
:406B8000013B134497F8A62507F5B3610A4412781A7097F8A635013387F8A63597F8A62597F8A5359A42D8D397F8A735013387F8A73597F89A3507F56172D35C97F8A72583
:406BC0009A42B9D331E1002387F8A7353BE097F8A73597F8A52502FB03F30333914A13441B88A7F89635002387F8A63520E097F89A2507F2344353F8222097F8A73597F894
:406C0000A51501FB03F3184697F8A51597F8A635CB1A0344013B134497F8A62507F296510A4412781A7097F8A635013387F8A63597F8A62597F8A5359A42D8D397F8A7358F
:406C4000013387F8A73597F89A3507F56172D35C97F8A7259A42BAD3E7E0002387F8A7353BE097F8A73597F8A52502FB03F303336C4A13441B68C7F89035002387F8A63587
:406C800020E097F89A2507F2344353F8222097F8A73597F8A51501FB03F3184697F8A51597F8A635CB1A0344013B134497F8A62507F5B2610A4412781A7097F8A6350133AA
:406CC00087F8A63597F8A62597F8A5359A42D8D397F8A735013387F8A73597F89A3507F56172D35C97F8A7259A42BAD39DE0002387F8A7353BE097F8A73597F8A52502FBFF
:406D000003F30333474A13441B68C7F88C35002387F8A63520E097F89A2507F2344353F8222097F8A73597F8A51501FB03F3184697F8A51597F8A635CB1A0344013B1344FE
:406D400097F8A62507F28C510A4412781A7097F8A635013387F8A63597F8A62597F8A5359A42D8D397F8A735013387F8A73597F89A3507F56172D35C97F8A7259A42BAD325
:406D800053E0002387F8A7353BE097F8A73597F8A52502FB03F30333224A13441B68C7F88835002387F8A63520E097F89A2507F2344353F8222097F8A73597F8A51501FBE0
:406DC00003F3184697F8A51597F8A635CB1A0344013B134497F8A62507F5B1610A4412781A7097F8A635013387F8A63597F8A62597F8A5359A42D8D397F8A735013387F8A3
:406E0000A73597F89A3507F56172D35C97F8A7259A42BAD309E0BB1D1B88184600F070F803E000BF0C96FF1F00BF97F89B359BB2BA1D12889A4211D0D7F8A03593F8AB3037
:406E40005B0103F51473D7F8A025D018D7F8A03503F5FC731022194619F0EAFD97F89A3507F57772D35C002B42D1002387F89F35FF2387F89E3597F89F3507F57772D35C1E
:406E8000002B04D197F89E35013387F89E3597F89F35013387F89F3597F89F2597F89A359A42E8D997F89E3507F1D802D35C052B1BD097F89E3507F1D802D35C062B14D0BC
:406EC00097F89E3507F1D802D35C082B0DD097F89E3507F1D802D35C092B06D097F89E3507F1D802D35C0A2B02D1044B01221A7000BF07F5B567BD46B0BD00BFC282FF1FE3
:406F0000F0B587B000AF0346FB8000233B750123FB74FB88023B4B2B01F2F28101A252F823F000BF557000007972000001830000B37400000183000001830000F974000071
:406F400001830000018300002576000001830000018300000183000001830000018300000183000001830000018300000183000001830000018300000183000011770000B6
:406F80006D770000018300000183000001830000A7770000018300000183000011790000BD7900000183000001830000018300000183000001830000F779000001830000F3
:406FC00001830000018300000183000001830000157A00004D7C0000018300006D7E00000183000001830000B17E00000183000001830000DB7F0000018300000183000019
:40700000018300000183000001830000018300000183000001830000C58000000183000001830000018300000183000001830000018300000183000001830000018300004F
:4070400001830000018300000183000001830000F18000003B7DA74A742101FB03F3134403F20F131B78032B00F08380A24B1B68FB600023BB750EE0BB7DC3F1030307F147
:4070800008021344BA7D07F10C010A4412781A70BB7D0133BB75BB7D032BEDD93C7DBB684FF08F41184619F08BFA0346184619F04DFC0146914A742303FB04F31344B03351
:4070C00019608F4B1B68FB600023BB750EE0BB7DC3F1030307F108021344BA7D07F10C010A4412781A70BB7D0133BB75BB7D032BEDD93C7DBB684FF08F41184619F060FAC1
:407100000346184619F022FC01467C4A742303FB04F31344B43319607A4B1B68FB600023BB750EE0BB7DC3F1030307F108021344BA7D07F10C010A4412781A70BB7D0133F8
:40714000BB75BB7D032BEDD93C7DBB684FF08F41184619F035FA0346184619F0F7FB0146664A742303FB04F31344B833196001F0D2B8614B1B68FB600023BB750EE0BB7DD4
:40718000C3F1030307F108021344BA7D07F10C010A4412781A70BB7D0133BB75BB7D032BEDD93C7DBB684FF08F41184619F008FA0346184619F0CAFB0146504A742303FB17
:4071C00004F31344C83319604D4B1B68FB600023BB750EE0BB7DC3F1030307F108021344BA7D07F10C010A4412781A70BB7D0133BB75BB7D032BEDD93C7DBB684FF08F417A
:40720000184619F0DDF90346184619F09FFB01463A4A742303FB04F31344CC331960394B1B68FB600023BB750EE0BB7DC3F1030307F108021344BA7D07F10C010A4412789F
